:1000000076C190C18FC18EC18DC18CC18BC18AC197
:1000100089C1FBC787C186C185C184C183C182C133
:1000200081C180C17FC10D0A0A47696573732D6F55
:100030002D6D61742048617570746D656E75650D08
:100040000A002073202D2053656E736F72776572DE
:10005000746520616E7A656967656E0D0A002063BC
:10006000202D2053656E736F727765727465202D35
:100070003E204353560D0A00206B202D20616B74E7
:1000800075656C6C65204B6F6E666967757261741F
:10009000696F6E20616E7A656967656E0D0A002072
:1000A00075202D20556872207374656C6C656E0D1B
:1000B0000A0A000D0A000D0A435356206F7574702A
:1000C00075742E2050726573732045534320746FEE
:1000D00020656E640D0A003B5A656974000D0A23A1
:1000E000503B000D0A23533B000D0A23503B000DEB
:1000F0000A426C756D6520202020202020202020C1
:10010000202053656E736F7220204175746F2047F5
:10011000696573737A6569742020202020205075EA
:100120006D7065207A756C65747A745F6765676F4A
:100130007373656E206C65747A7465735F496E7451
:10014000657276616C6C0054494D45522020002048
:100150004155532020202020202020202020202016
:10016000202020200020414E2020200020415553F7
:100170002020000D0A4A616872203F203230000DB5
:100180000A4D6F6E61742028312D313229203F20B5
:10019000000D0A546167203F20000D0A5374756EEC
:1001A0006465203F20000D0A4D696E757465203F1F
:1001B00020000D0A53656B756E64656E6C61656E2B
:1001C0006765204665696E74756E696E673A0D0ADB
:1001D00000206E202D20426C756D656E6E616D6520
:1001E0006E2061656E6465726E0D0A002069202DB7
:1001F0002050756D70652065696E0D0A00206F20B6
:100200002D2050756D7065206175730D0A00206199
:10021000202D204175746F6D6174696B204D6F6482
:1002200075733A200046657563687469676B656924
:1002300074736D657373756E670D0A002074202DDD
:10024000206D696E2E20005A65697473746575653A
:1002500072756E670D0A002074202D200061757381
:100260000D0A00207A202D2048617570746D656E2E
:1002700075650D0A0A000D616B7475656C6C6572AD
:10028000204D657373776572743A20000D0A4E65D0
:10029000756572204E616D653A20000D0A6D696EBC
:1002A0002E204769657373696E74657276616C6C34
:1002B00020696E205374756E64656E203F20000DBA
:1002C0000A47696573737A65697420696E2053659E
:1002D0006B756E64656E203F200045696E736368C0
:1002E000616C7470756E6B74203F20000D001124DA
:1002F0001FBECFE5D4E0DEBFCDBF11E0A0E6B0E089
:10030000E2EDFBE102C005900D92AA3DB107D9F7DD
:1003100012E0AAEDB1E001C01D92A036B107E1F7ED
:1003200029D755CC6DCE811126C0662351F1939A01
:10033000662301F190E0DC01AA0FBB1FAA0FBB1FCF
:10034000AA0FBB1FA05FBD4F880F991F880F991F71
:10035000880F991F80529E4F28E0FC0101900D925A
:100360002A95E1F728E0ECE4F2E0DC0101900D923F
:100370002A95E1F70895813031F4662361F0949A6B
:10038000D7CF93980895823041F4662311F0929A62
:10039000CFCF9298089594980895833031F46623CE
:1003A00011F0969AC5CF96980895843021F466236B
:1003B00049F0979ABDCF853009F0BACF662321F076
:1003C000C09AB8CF97980895C0980895811105C034
:1003D00082B383FB882780F90895813059F08230F9
:1003E00091F0833059F0843099F08530B1F488B3BE
:1003F0008170089582B382958170089582B386FBDF
:10040000882780F9089582B382FB882780F90895B0
:1004100082B3881F8827881F08958FEF08951F9340
:10042000CF93DF93182FEB016091DA017091DB011C
:1004300089E1189F600D711D11246B5F7F4F40E1B2
:1004400050E0CE0166D91F86888180325CF486E058
:10045000E2EAF0E0DE0101900D928A95E1F71F5C7F
:100460001D831E82DF91CF911F910895CF92DF925D
:10047000EF92FF920F931F93CF93DF93CDB7DEB729
:1004800060970FB6F894DEBF0FBECDBF86E290E056
:100490006CD501E010E0EE24E394F12CEC0EFD1E8F
:1004A00058EAC52E50E0D52EB701802F8150B7DF16
:1004B000FF92EF921F930F93DF92CF9242D70F5F7D
:1004C0001F4F0F900F900F900F900F900F900730CD
:1004D000110551F782E490E048D58EE590E045D5CE
:1004E00088E790E042D58FE990E03FD560960FB65F
:1004F000F894DEBF0FBECDBFDF91CF911F910F915A
:10050000FF90EF90DF90CF900895FC0180811F92C3
:100510008F9381811F928F9382811F928F93858108
:100520001F928F93848190E0880F991F880F991FE5
:100530008E599F4F9F938F9383811F928F9383EB4D
:1005400090E09F938F93FDD68DB79EB70E960FB612
:10055000F8949EBF0FBE8DBF08952F923F924F9289
:100560005F926F927F928F929F92AF92BF92CF9243
:10057000DF92EF92FF920F931F93CF93DF93CDB74C
:10058000DEB769970FB6F894DEBF0FBECDBF8FEE12
:1005900090E0EBD403E112E0A12CB12CE12CF12C82
:1005A000E6E0CE2ED12CCC0EDD1EF1ED8F2EF0E04C
:1005B0009F2EACE36A2EB5EE2B2EB0E03B2E8AEFD9
:1005C000482E80E0582E52C085E691E0CED4C70177
:1005D000880F991F880F991F880F991F80529E4F6F
:1005E00094DFF801F097608170E0F8018081681B6A
:1005F0007109F197808190E0F80131972081821B89
:100600009109F801F297208130E0F801329740819A
:10061000241B3109F801F397408150E0F80133972A
:10062000E0814E1B510957FDA4C037FD9EC097FDC8
:1006300098C05F934F933F932F939F938F937F9394
:100640006F935F924F927DD6FFEFEF1AFF0A29E179
:10065000A20EB11C085F1F4F0FB6F894DEBF0FBE8D
:10066000CDBF96E0E916F10409F48CC07E2C6091B0
:10067000DA017091DB016A0D7B1D49E150E0CE018A
:10068000019647D8B6018E2DCADE8E2DB4D49F9325
:100690008F93DF92CF929F928F9253D689810F9042
:1006A0000F900F900F900F900F90843509F466C053
:1006B0008D3459F08FE491E058D4872D87DE811175
:1006C00083CF8CE691E051D482CF8B818F938A8146
:1006D0008F938FED90E09F938F9333D60F900F9071
:1006E0000F900F90E88DF98D4E895F899F01ABEADD
:1006F000BAEAAFD5929582958F7089279F70892726
:100700009C01220F331F280F391F220F331F220F86
:10071000331F220F331FE21BF30BFF93EF939F93C3
:100720008F939A01A9E8B8E894D596958795929504
:1007300082958F7089279F708927689E9001699E96
:10074000300D1124421B530B5F934F939F938F9354
:100750003F922F92F6D50FB6F894DEBF0FBECDBFF5
:10076000ACCF48966150710964CF245C3F4F01972C
:100770005ECF445C5F4F2150310957CF87E491E051
:10078000F4D3B0CF69960FB6F894DEBF0FBECDBFDD
:10079000DF91CF911F910F91FF90EF90DF90CF905D
:1007A000BF90AF909F908F907F906F905F904F9091
:1007B0003F902F90089580914D021F928F938091CA
:1007C0004E021F928F9380914F021F928F938091C0
:1007D00050021F928F93809151021F928F938FE04E
:1007E00091E09F938F93ADD58DB79EB70C960FB6C2
:1007F000F8949EBF0FBE8DBF089583E791E0B5D3F7
:10080000C0D3809351028FE791E0AFD3BAD38093E6
:10081000500281E991E0A9D3B4D380934F028AE9D1
:1008200091E0A3D3AED380934E0286EA91E09DD3AC
:10083000A8D380934D0210924C0282EB91E095D3A5
:10084000809155028F93809154028F938AE291E0B8
:100850009F938F9376D595D30F900F900F900F9015
:100860001816190644F49093550280935402BC0163
:1008700086E990E079C70895CF93DF93EB019B0160
:100880002B5F3F4F3F932F9390E001969F938F9361
:100890008BE591E09F938F9354D581ED91E065D3E3
:1008A0008CEE91E062D38DEF91E05FD38EE092E029
:1008B0005CD388810F900F900F900F900F900F9046
:1008C0008D3409F463C0843551F08D3489F08DE5A1
:1008D00092E04BD383E692E0DF91CF9146C387E469
:1008E00092E043D387E592E040D38881843569F76D
:1008F000EF89F88D9F01ABEABAEAABD49295829565
:100900008F7089279F708927AC01440F551F480FAE
:10091000591F440F551F440F551F440F551FE41B0B
:10092000F50BFF93EF939F938F9387E891E09F934D
:100930008F9307D54D895E899A01A9E8B8E889D4D3
:1009400096958795929582958F7089279F708927B4
:100950006CE3689F9001699F300D1124421B530B7B
:100960005F934F939F938F9385EA91E09F938F932B
:10097000E8D48DB79EB70C960FB6F8949EBF0FBE05
:100980008DBF83E692E0DF91CF91EFC285E292E0E6
:10099000ECD28A818F9389818F938DE691E09F932A
:1009A0008F93CFD48CE392E0E0D288810F900F90A8
:1009B0000F900F9088CF7F928F929F92AF92BF92AD
:1009C000CF92DF92EF92FF920F931F93CF93DF931B
:1009D000CDB7DEB769970FB6F894DEBF0FBECDBFB7
:1009E000B82E89E1B89E600111246091DA017091FE
:1009F000DB016C0D7D1D49E150E0CE01019689D6E9
:100A0000BE016A5F7F4F8B2D0ADDBE016F5F7F4F96
:100A10008B2D32DF05EC11E0AA24AA94F4E58F2E89
:100A2000ADE49A2E8B2DE7D2F82EE92E86E792E0E0
:100A30009CD2EF92FF921F930F9383D486D20F9094
:100A40000F900F900F90892B69F380E090E078D29F
:100A5000893609F464C0D4F4813609F46BC0853654
:100A600009F461C069960FB6F894DEBF0FBECDBF22
:100A7000DF91CF911F910F91FF90EF90DF90CF907A
:100A8000BF90AF909F908F907F9008958F3609F41C
:100A900042C0843799F18E3629F78CE892E065D20E
:100AA000E6E0EE2EF12CEC0EFD1E712CF70110820B
:100AB00080E090E045D28D3009F443C08A3009F4DB
:100AC00040C0F70181937F01992787FD90954DD410
:100AD0007394FFE07F12EACF1D8A6091DA01709172
:100AE000DB016C0D7D1D49E150E0CE01019626D65B
:100AF000BE016F5F7F4F8B2DBFDE94CF8BE992E0FD
:100B000034D23FD2998F888F8FEB92E02ED239D298
:100B10009F8B8E8BE2CF60E08B2D05DC83CF61E075
:100B20008B2D01DC7FCF8AED92E01FD22AD29B83EE
:100B30008A83D3CF89818F3F49F08D3449F0A982D0
:100B4000CCCF1D8A772009F46DCFC7CF9982C5CF4E
:100B50008982C3CFCF92DF92EF92FF920F931F93C0
:100B6000CF93DF93CDB7DEB769970FB6F894DEBFAA
:100B70000FBECDBFB7EEEB2EB1E0FB2E00E010E0D4
:100B8000D12C17C02091520230E0F70131978081BB
:100B9000281B31098E899F892817390708F03FC023
:100BA000D394075E1F4FF8E0EF0EF11C86E0D816D5
:100BB00039F16091DA017091DB01600F711F49E139
:100BC00050E0CE010196A5D58D2D00DCC82E8D2DCF
:100BD00012D2C110D7CF2091530230E0F7014081EB
:100BE000241B3109688D798D26173707C8F22981B2
:100BF0002D34C9F02435A1F661E08D2D94DBD0CFE2
:100C000069960FB6F894DEBF0FBECDBFDF91CF91CE
:100C10001F910F91FF90EF90DF90CF90089560E0CB
:100C20008D2D81DBBDCF2A813B812817390708F044
:100C3000B7CF61E08D2D77DBB3CF2F923F924F92EC
:100C40005F926F927F929F92AF92BF92CF92DF920C
:100C5000EF92FF920F931F93CF93DF93CDB7DEB741
:100C6000E2970FB6F894DEBF0FBECDBF86EB90E0E3
:100C70007CD12E0129E2420E511C1E0189E1280E71
:100C8000311CD201FE0131961192119211921192F2
:100C90001D92E215F305C1F7E1E0F0E0FAABE9AB34
:100CA00066246394712CD12C2FECE22E21E0F22EDD
:100CB0009D2C80914C028915B9F14CDF90904C022B
:100CC00062018E010F5F1F4FAA24A394BC2CB4189D
:100CD0008B2D91D1F8014081518162817381480F40
:100CE000591F611D711D41935193619371938F0140
:100CF0008B2D6CDB882311F0F601A082FFEFCF1A59
:100D0000DF0A0215130511F791100EC089A99AA9DF
:100D1000892BD9F48AE06816710409F455C08FEF65
:100D2000681A780A1AAA19AA10D1892B11F280E040
:100D300090E006D18B3109F484C0833609F0B9CF35
:100D400081E090E09AAB89ABB4CF87ED90E00DD114
:100D500010E0B101812F63DB3F922F92EBECF1E0C9
:100D6000FF93EF93EED21F5F0F900F900F900F90B5
:100D7000163079F78DED90E0F8D01DDD00E010E041
:100D800018AA1FA66091DA017091DB01600F711F34
:100D90006F5F7F4F42E050E0CE018F96BAD488A9B2
:100DA0008F938FA58F93FF92EF92CBD2075E1F4F49
:100DB0000F900F900F900F900639110509F78AE0F8
:100DC0006816710409F0ABCF83EE90E0CED0F3DC6F
:100DD00062018E010F5F1F4FA12CB12CF8016081C1
:100DE0007181828193812CE330E040E050E03DD27C
:100DF000CA01B9012AE030E040E050E036D23F932A
:100E00002F93FF92EF929DD2F801119211921192BD
:100E100011928F01F60181916F010F900F900F9049
:100E20000F90882319F0AA24A394B12C021513055E
:100E3000A9F6AB28F1F41AAA19AA66246394712CB6
:100E400073CFE2960FB6F894DEBF0FBECDBFDF9131
:100E5000CF911F910F91FF90EF90DF90CF90BF90B7
:100E6000AF909F907F906F905F904F903F902F90AA
:100E7000089589EE90E079D09EDC8201C12CD12CBE
:100E800014C080E090E09F938F93FF92EF9259D22D
:100E90000F5F1F4FF9E1CF0ED11C0F900F900F90F5
:100EA0000F9026E9C216D10431F218AA1FA6F80144
:100EB0008081882331F36091DA017091DB016C0D40
:100EC0007D1D6F5F7F4F42E050E0CE018F9621D4B1
:100ED000F80110828FA598A9D6CF1F93CF93DF93E7
:100EE00010E0C3EDD1E004C080914C02811309C031
:100EF0002CD0892BC9F380E090E0DF91CF911F9136
:100F00001FC028DE83EB90E030D08CE492E0FDDA65
:100F100010E0812F70D09F938F93DF93CF9311D2E6
:100F20001F5F0F900F900F900F90163091F7109158
:100F30004C02DECF5D9BFECF8CB980E090E008953F
:100F40005F9BFECF8CB190E008958BB1807890E0EC
:100F50000895FC012081222339F031965D9BFECF5C
:100F60002CB921912111FACF0895FC018491882395
:100F700039F05D9BFECF8CB9319684918111F9CF08
:100F8000089520E030E05F9BFECF5F9BFECF4CB129
:100F90004D30B9F04A30A9F0C901880F991F220FCE
:100FA000331F220F331F220F331F280F391F240F27
:100FB000311D47FD3A95205331095D9BFECF4CB959
:100FC000E2CFC901089510BC8CE089B988E18AB9E3
:100FD0008EE880BD60EA77E08AE997E068C184E046
:100FE00083BF83E882BF87E08EBD1DBC1CBC89B770
:100FF000816089BF0895E82FF0E0EE0FFF1FE05CED
:10100000FD4F20813181C90108951F920F920FB6C3
:101010000F9211242F933F934F938F939F93EF93AE
:10102000FF9383E882BF8091DE018F5F8093DE01B2
:101030008091DD018F5F8093DD018091DD01893139
:1010400009F463C02091DE0130E080915402909158
:101050005502281739070CF44CC01092DE0180911C
:101060004C028F5F80934C02909152029F5F90934D
:1010700052028C33F0F110924C0280914D028F5F3E
:1010800080934D028C33A8F110924D0280914E0254
:101090008F5F80934E02909153029F5F9093530213
:1010A000883138F140915002E42FF0E0EB56FF4FC9
:1010B0008081992787FD9095423009F453C01092A2
:1010C0004E0220914F022F5F20934F0230E0821793
:1010D00093077CF481E080934F024F5F409350026E
:1010E0004D3038F080935002809151028F5F809391
:1010F0005102FF91EF919F918F914F913F912F91CD
:101100000F900FBE0F901F9018958091DC018111F8
:101110001DC0E091DF01F0E08CB59DB5EE0FFF1F23
:10112000E05CFD4F918380838091DF018F5F80932E
:10113000DF018091DF01863010F01092DF01809195
:10114000DF0185BB81E08093DC0104C08091DC017C
:10115000813019F01092DD0175CF1DBC1CBC1092BE
:10116000DC01F8CF20915102237009F0A8CF8DE166
:1011700090E0A5CF19BE33DF15BA87E084BB12BA61
:101180008CED81BB18BA81E087BB80934F028093BE
:10119000500286E990E0CDD290935502809354029C
:1011A0000196029730F48AEF90E090935502809375
:1011B000540209DF789480E192E028E0DC01D097C6
:1011C000ECE4F2E0322F01900D923A95E1F7ECE475
:1011D000F2E0DC01322F01900D923A95E1F708968A
:1011E00032E08034930751F741D9C0E080914C023E
:1011F0008C1749F08CEE92E0B8DE8CE492E085D951
:10120000C0914C02A7DCA1DE892B81F380E090E045
:1012100097DE982F9153963030F4892FCCDB982F9E
:1012200091539630D0F3833789F08B3661F0853750
:1012300039F0833611F01AD9D9CFFFDC17D9D6CFC0
:10124000DCDA14D9D3CF89D911D9D0CF46DE0ED963
:10125000CDCFA29FB001B39FC001A39F01D0B29F89
:10126000700D811D1124911D0895A1E21A2EAA1B53
:10127000BB1BFD010DC0AA1FBB1FEE1FFF1FA21746
:10128000B307E407F50720F0A21BB30BE40BF50B43
:10129000661F771F881F991F1A9469F760957095CC
:1012A000809590959B01AC01BD01CF0108950F93EE
:1012B0001F93CF93DF93EC018B01009731F46115FD
:1012C000710519F4E0E0F0E036C06EE070E081E016
:1012D00090E04DD2FC010097A9F380E883830115CB
:1012E000110571F01387028781E88383809156028C
:1012F00090915702892B21F4F0935702E093560204
:101300002097C9F0D187C0878381826083838091D1
:10131000580290915902892B71F4F0935902E0938D
:10132000580280915A0290915B02892B21F4F0932C
:101330005B02E0935A02CF01DF91CF911F910F9191
:101340000895A2E0B0E0E6EAF9E01AC4FE0137969B
:1013500061917191FA83E983AF0180915802909174
:10136000590209D02296E2E027C460915802709198
:1013700059026CD30895ACE0B0E0E0ECF9E0F0C3C2
:101380007C016B018A01FC0117821682838181FF37
:10139000BAC188248394912C8C0E9D1EF7019381F1
:1013A000F60193FD859193FF81916F01882309F4E4
:1013B000A6C1853239F493FD859193FF81916F0128
:1013C000853221F4B70190E041D3E8CF712C312C64
:1013D00020E02032A8F48B3261F028F4803251F002
:1013E000833271F40BC08D3239F0803349F42160BF
:1013F00028C02260246025C0286023C0206121C04D
:1014000027FD27C0382F30533A3078F426FF06C026
:10141000FAE07F9E300D1124732E13C08AE0389EAF
:10142000300D1124332E20620CC08E3221F426FDA3
:1014300066C1206406C08C3611F4206802C088366C
:1014400041F4F60193FD859193FF81916F01811124
:10145000C0CF982F9554933018F09052933028F4C1
:101460000C5F1F4FFFE3F9830DC0833631F08337E4
:1014700071F0833509F05AC022C0F8018081898358
:101480000E5F1F4F66246394712C540114C0280111
:10149000F2E04F0E511CF801A080B18026FF03C07E
:1014A000672D70E002C06FEF7FEFC5012C87C3D2BC
:1014B0003C0182012C856FE7262E222217C02801CD
:1014C000F2E04F0E511CF801A080B18026FF03C04E
:1014D000672D70E002C06FEF7FEFC5012C8799D2B6
:1014E0003C012C8550E8252E222A820123FC1AC0BB
:1014F00005C0B70180E290E0A9D23A94832D90E034
:1015000068167906B0F30EC0F50127FC859127FE19
:1015100081915F01B70190E099D231103A94F1E0E6
:101520006F1A71086114710479F7E6C0843611F0FE
:10153000893639F5F80127FF07C060817181828102
:1015400093810C5F1F4F08C060817181882777FDF0
:101550008095982F0E5F1F4F4FE6642E622297FFF3
:1015600009C090958095709561957F4F8F4F9F4FE3
:10157000F0E86F2A2AE030E0A40194D2A82EA8183F
:1015800043C0853731F43FEEB32EB2222AE030E07B
:1015900024C099EFB92EB2228F36B9F020F48835E5
:1015A00009F0ADC00DC0803721F0883709F0A7C021
:1015B00002C020E1B22AB4FE0BC084E0B82A08C001
:1015C00024FF09C0E6E0BE2A06C028E030E005C0DE
:1015D00020E130E002C020E132E0F801B7FE07C0B0
:1015E00060817181828193810C5F1F4F06C0608191
:1015F000718180E090E00E5F1F4FA40153D2A82EAE
:10160000A8188FE7682E6B2066FE0BC0362D3E7F34
:10161000A71450F464FE0AC062FC08C0362D3E7E5A
:1016200005C0BA2C362D03C0BA2C01C0B72C34FF2C
:101630000DC0FE01EA0DF11D8081803311F4397E69
:1016400009C032FF06C0B394B39404C0832F8678D8
:1016500009F0B39433FD13C030FF0EC07A2CB314DD
:1016600058F4730C7B18B32C07C0B70180E290E0EC
:101670003C87ECD1B3943C85B314B8F304C0B314E5
:1016800010F43B1801C0312C34FF11C0B70180E3C6
:1016900090E03C87DBD13C8532FF1CC031FF03C0AA
:1016A00088E590E002C088E790E0B7010CC0832F86
:1016B000867881F031FD02C080E201C08BE237FD07
:1016C0008DE2B70190E0C2D105C0B70180E390E0A0
:1016D000BDD17A94A714C8F3AA94F401EA0DF11DC0
:1016E000B701808190E0B2D1A110F6CF05C0B7015B
:1016F00080E290E0ABD13A943110F9CF4FCEF701B0
:101700002681378102C02FEF3FEFC9012C96E2E11D
:1017100043C2DC01CB01FC01E199FECF06C0FFBB57
:10172000EEBBE09A31960DB20D9241505040B8F7A1
:101730000895A8E1B0E042E050E0EDCFDC01CB013C
:1017400002C02D9105D041505040D8F70895262F62
:10175000E199FECF9FBB8EBB2DBB0FB6F894E29AEA
:10176000E19A0FBE01960895F2DF272FF1CF0F9374
:101770001F93CF93DF93689F8001699F100D789F1F
:10178000100D1124C8010FD0C82FD92F209729F090
:10179000A80160E070E08C2F47D1CE01DF91CF919E
:1017A0001F910F9108950F931F93CF93DF93823072
:1017B000910510F482E090E0E0915E02F0915F020A
:1017C00020E030E0C0E0D0E023C0408151814817E4
:1017D0005907A8F04817590761F48281938120972F
:1017E00019F09B838A832EC090935F0280935E02E0
:1017F00029C02115310529F04217530710F0A9011E
:1018000002C0BE01DF0102811381EF019A01F801DC
:101810003097D9F62115310509F1281B390B2430F1
:10182000310590F412968D919C9113976115710575
:1018300021F0FB019383828304C090935F02809325
:101840005E02FD01329644C0FD01E20FF31F819359
:101850009193225031092D933C933AC020915C0220
:1018600030915D02232B41F420916200309163009E
:1018700030935D0220935C02209160003091610002
:101880002115310541F42DB73EB7409164005091C8
:101890006500241B350BE0915C02F0915D02E217BC
:1018A000F307A0F42E1B3F0B2817390778F0AC0183
:1018B0004E5F5F4F2417350748F04E0F5F1F509360
:1018C0005D0240935C028193919302C0E0E0F0E0FE
:1018D000CF01DF91CF911F910F910895EF92FF9269
:1018E0000F931F93CF93DF93009709F48EC0DC0111
:1018F000129713961C921E921297E0905E02F0903F
:101900005F02E114F10489F42D913C911197280FA5
:10191000391F80915C0290915D028217930789F5CF
:10192000B0935D02A0935C0270C0E70120E030E05C
:1019300001C0EA01CA17DB0738F44A815B819E01C6
:1019400041155105B1F722C0AC0142505109FA01CD
:10195000D383C28300811181BC01600F711F6C179A
:101960007D0761F468817981600F711F6E5F7F4F21
:10197000718360836A817B81738362832115310562
:1019800029F4B0935F02A0935E023FC0F901B383D4
:10199000A283E90149915991C40FD51FAC17BD0726
:1019A00071F4DC019E918E91840F951F02969183B4
:1019B000808312968D919C91139793838283A0E0EC
:1019C000B0E002C0D7017C01F701828193810097CA
:1019D000C9F7C701029620813181820F931F2091A0
:1019E0005C0230915D022817390779F4109729F4C9
:1019F00010925F0210925E0204C013961C921E9217
:101A00001297F0925D02E0925C02CDB7DEB7E6E09D
:101A1000CFC0FC010590615070400110D8F780954F
:101A200090958E0F9F1F0895DC0101C06D9341506A
:101A30005040E0F70895FC016150704001900110A2
:101A4000D8F7809590958E0F9F1F08950F931F9341
:101A5000CF93DF938C01EB018B8181FD03C00FEFEE
:101A60001FEF1AC082FF0DC02E813F818C819D81A6
:101A70002817390764F4E881F9810193F983E88331
:101A800006C0E885F985802F0995892B41F78E815D
:101A90009F8101969F838E83C801DF91CF911F9113
:101AA0000F910895FA01AA27283051F1203181F1D0
:101AB000E8946F936E7F6E5F7F4F8F4F9F4FAF4F56
:101AC000B1E03ED0B4E03CD0670F781F891F9A1F69
:101AD000A11D680F791F8A1F911DA11D6A0F711D1D
:101AE000811D911DA11D20D009F468943F912AE029
:101AF000269F11243019305D3193DEF6CF01089511
:101B0000462F4770405D4193B3E00FD0C9F7F6CF41
:101B1000462F4F70405D4A3318F0495D31FD405209
:101B2000419302D0A9F7EACFB4E0A695979587959F
:101B300077956795BA95C9F700976105710508957E
:101B40009B01AC010A2E069457954795379527952A
:101B5000BA95C9F7620F731F841F951FA01D0895C2
:101B60002F923F924F925F926F927F928F929F92AD
:101B7000AF92BF92CF92DF92EF92FF920F931F939B
:101B8000CF93DF93CDB7DEB7CA1BDB0B0FB6F8944C
:101B9000DEBF0FBECDBF09942A88398848885F848C
:101BA0006E847D848C849B84AA84B984C884DF80FD
:101BB000EE80FD800C811B81AA81B981CE0FD11DE1
:101BC0000FB6F894DEBF0FBECDBFED010895F894B7
:021BD000FFCF45
:101BD2000000600220004A616E00466562004D61AD
:101BE2007200417072004D6169004A756E004A755B
:101BF2006C0041756700536570004F6B74004E6F47
:101C0200760044657A001F1C1F1E1F1E1F1F1E1F09
:101C12001E1F426C756D6500202564202D202573E2
:101C22000D0A00253032642E25732E3230253032D3
:101C32006420253032643A253032643A25303264E9
:101C4200000D0A252D3136732020253575200025FB
:101C52003575202000253032646D253032647325BD
:101C62003364642530326468200020253364642C98
:101C7200253032643A253032643A253032640032FB
:101C820030253032642D253032642D2530326420E7
:101C9200253032643A2530326400616B7475656CAC
:101CA2006C3D25642E206E657565722057657274D1
:101CB2002028454E5445523D6B65696E652041654D
:101CC2006E646572756E6729203F000D0A0A2A2A22
:101CD2002025642E202573202A2A0D0A0020652043
:101CE2002D2045696E736368616C7470756E6B74D8
:101CF2003A2025750D0A00496E74657276616C6C26
:101D02003A20256420546167652C20256420537491
:101D1200642E0D0A00202020202047696573737A03
:101D22006569743A20253032643A25303264206D78
:101D3200696E0D0A002575202020003B2573003BAB
:0A1D42002575002C202535753000B2
:00000001FF
